{
  "contractName": "EvidenceStorage",
  "abi": [
    {
      "anonymous": false,
      "inputs": [
        {
          "indexed": true,
          "internalType": "uint256",
          "name": "index",
          "type": "uint256"
        },
        {
          "indexed": true,
          "internalType": "bytes32",
          "name": "txHash",
          "type": "bytes32"
        }
      ],
      "name": "EvidenceStored",
      "type": "event"
    },
    {
      "inputs": [
        {
          "internalType": "uint256",
          "name": "",
          "type": "uint256"
        }
      ],
      "name": "evidenceArray",
      "outputs": [
        {
          "internalType": "string",
          "name": "hash",
          "type": "string"
        },
        {
          "internalType": "string",
          "name": "timestamp",
          "type": "string"
        },
        {
          "internalType": "string",
          "name": "investigator",
          "type": "string"
        },
        {
          "internalType": "string",
          "name": "content",
          "type": "string"
        },
        {
          "internalType": "string",
          "name": "author_username",
          "type": "string"
        }
      ],
      "stateMutability": "view",
      "type": "function",
      "constant": true
    },
    {
      "inputs": [],
      "name": "evidenceCount",
      "outputs": [
        {
          "internalType": "uint256",
          "name": "",
          "type": "uint256"
        }
      ],
      "stateMutability": "view",
      "type": "function",
      "constant": true
    },
    {
      "inputs": [
        {
          "internalType": "bytes32",
          "name": "",
          "type": "bytes32"
        }
      ],
      "name": "txHashToEvidenceId",
      "outputs": [
        {
          "internalType": "uint256",
          "name": "",
          "type": "uint256"
        }
      ],
      "stateMutability": "view",
      "type": "function",
      "constant": true
    },
    {
      "inputs": [
        {
          "internalType": "string",
          "name": "_hash",
          "type": "string"
        },
        {
          "internalType": "string",
          "name": "_timestamp",
          "type": "string"
        },
        {
          "internalType": "string",
          "name": "_investigator",
          "type": "string"
        },
        {
          "internalType": "string",
          "name": "_content",
          "type": "string"
        },
        {
          "internalType": "string",
          "name": "_author_username",
          "type": "string"
        },
        {
          "internalType": "string[]",
          "name": "_mediaUrls",
          "type": "string[]"
        }
      ],
      "name": "storeEvidence",
      "outputs": [],
      "stateMutability": "nonpayable",
      "type": "function"
    },
    {
      "inputs": [
        {
          "internalType": "uint256",
          "name": "_index",
          "type": "uint256"
        }
      ],
      "name": "getEvidence",
      "outputs": [
        {
          "internalType": "string",
          "name": "hash",
          "type": "string"
        },
        {
          "internalType": "string",
          "name": "timestamp",
          "type": "string"
        },
        {
          "internalType": "string",
          "name": "investigator",
          "type": "string"
        },
        {
          "internalType": "string",
          "name": "content",
          "type": "string"
        },
        {
          "internalType": "string",
          "name": "author_username",
          "type": "string"
        },
        {
          "internalType": "string[]",
          "name": "mediaUrls",
          "type": "string[]"
        }
      ],
      "stateMutability": "view",
      "type": "function",
      "constant": true
    },
    {
      "inputs": [
        {
          "internalType": "bytes32",
          "name": "txHash",
          "type": "bytes32"
        }
      ],
      "name": "getEvidenceByTxHash",
      "outputs": [
        {
          "internalType": "uint256",
          "name": "index",
          "type": "uint256"
        },
        {
          "internalType": "string",
          "name": "hash",
          "type": "string"
        },
        {
          "internalType": "string",
          "name": "timestamp",
          "type": "string"
        },
        {
          "internalType": "string",
          "name": "investigator",
          "type": "string"
        },
        {
          "internalType": "string",
          "name": "content",
          "type": "string"
        },
        {
          "internalType": "string",
          "name": "author_username",
          "type": "string"
        },
        {
          "internalType": "string[]",
          "name": "mediaUrls",
          "type": "string[]"
        }
      ],
      "stateMutability": "view",
      "type": "function",
      "constant": true
    }
  ],
  "bytecode": "0x608060405234801561001057600080fd5b5061152d806100206000396000f3fe608060405234801561001057600080fd5b50600436106100625760003560e01c80634849b4711461006757806388aae88014610090578063a06f3905146100b4578063a2ed5af0146100da578063b9c5b12e146100e2578063c956f143146100f7575b600080fd5b61007a61007536600461109c565b61011c565b60405161008791906113c3565b60405180910390f35b6100a361009e36600461109c565b61012e565b604051610087959493929190611260565b6100c76100c236600461109c565b61041c565b60405161008797969594939291906113cc565b61007a610884565b6100f56100f03660046110b4565b61088a565b005b61010a61010536600461109c565b610a20565b604051610087969594939291906112cd565b60016020526000908152604090205481565b6000818154811061013e57600080fd5b90600052602060002090600602016000915090508060000180546101619061147f565b80601f016020809104026020016040519081016040528092919081815260200182805461018d9061147f565b80156101da5780601f106101af576101008083540402835291602001916101da565b820191906000526020600020905b8154815290600101906020018083116101bd57829003601f168201915b5050505050908060010180546101ef9061147f565b80601f016020809104026020016040519081016040528092919081815260200182805461021b9061147f565b80156102685780601f1061023d57610100808354040283529160200191610268565b820191906000526020600020905b81548152906001019060200180831161024b57829003601f168201915b50505050509080600201805461027d9061147f565b80601f01602080910402602001604051908101604052809291908181526020018280546102a99061147f565b80156102f65780601f106102cb576101008083540402835291602001916102f6565b820191906000526020600020905b8154815290600101906020018083116102d957829003601f168201915b50505050509080600301805461030b9061147f565b80601f01602080910402602001604051908101604052809291908181526020018280546103379061147f565b80156103845780601f1061035957610100808354040283529160200191610384565b820191906000526020600020905b81548152906001019060200180831161036757829003601f168201915b5050505050908060040180546103999061147f565b80601f01602080910402602001604051908101604052809291908181526020018280546103c59061147f565b80156104125780601f106103e757610100808354040283529160200191610412565b820191906000526020600020905b8154815290600101906020018083116103f557829003601f168201915b5050505050905085565b6000818152600160205260408120546002546060918291829182918291829181106104625760405162461bcd60e51b81526004016104599061134f565b60405180910390fd5b600080828154811061048457634e487b7160e01b600052603260045260246000fd5b90600052602060002090600602016040518060c00160405290816000820180546104ad9061147f565b80601f01602080910402602001604051908101604052809291908181526020018280546104d99061147f565b80156105265780601f106104fb57610100808354040283529160200191610526565b820191906000526020600020905b81548152906001019060200180831161050957829003601f168201915b5050505050815260200160018201805461053f9061147f565b80601f016020809104026020016040519081016040528092919081815260200182805461056b9061147f565b80156105b85780601f1061058d576101008083540402835291602001916105b8565b820191906000526020600020905b81548152906001019060200180831161059b57829003601f168201915b505050505081526020016002820180546105d19061147f565b80601f01602080910402602001604051908101604052809291908181526020018280546105fd9061147f565b801561064a5780601f1061061f5761010080835404028352916020019161064a565b820191906000526020600020905b81548152906001019060200180831161062d57829003601f168201915b505050505081526020016003820180546106639061147f565b80601f016020809104026020016040519081016040528092919081815260200182805461068f9061147f565b80156106dc5780601f106106b1576101008083540402835291602001916106dc565b820191906000526020600020905b8154815290600101906020018083116106bf57829003601f168201915b505050505081526020016004820180546106f59061147f565b80601f01602080910402602001604051908101604052809291908181526020018280546107219061147f565b801561076e5780601f106107435761010080835404028352916020019161076e565b820191906000526020600020905b81548152906001019060200180831161075157829003601f168201915b5050505050815260200160058201805480602002602001604051908101604052809291908181526020016000905b828210156108485783829060005260206000200180546107bb9061147f565b80601f01602080910402602001604051908101604052809291908181526020018280546107e79061147f565b80156108345780601f1061080957610100808354040283529160200191610834565b820191906000526020600020905b81548152906001019060200180831161081757829003601f168201915b50505050508152602001906001019061079c565b505050915250508051602082015160408301516060840151608085015160a090950151969f939e50919c509a5098509096509194509092505050565b60025481565b6002546040805160c0810182528881526020808201899052918101879052606081018690526080810185905260a081018490526000805460018101825590805281518051929360069092027f290decd9548b62a8d60345a988386fc84ba6bc95484008f6362f93160ef3e56301926109059284920190610e68565b50602082810151805161091e9260018501920190610e68565b506040820151805161093a916002840191602090910190610e68565b5060608201518051610956916003840191602090910190610e68565b5060808201518051610972916004840191602090910190610e68565b5060a0820151805161098e916005840191602090910190610eec565b505050600033426002546040516020016109aa93929190611236565b60408051601f198184030181529181528151602092830120600081815260019093529082208490556002805491935090916109e4836114ba565b9091555050604051819083907f47e3eb89258534a591b28bc35825dc59834f403975613825a5e760efa11e82ab90600090a35050505050505050565b6060806060806060806002548710610a4a5760405162461bcd60e51b815260040161045990611396565b6000808881548110610a6c57634e487b7160e01b600052603260045260246000fd5b90600052602060002090600602016040518060c0016040529081600082018054610a959061147f565b80601f0160208091040260200160405190810160405280929190818152602001828054610ac19061147f565b8015610b0e5780601f10610ae357610100808354040283529160200191610b0e565b820191906000526020600020905b815481529060010190602001808311610af157829003601f168201915b50505050508152602001600182018054610b279061147f565b80601f0160208091040260200160405190810160405280929190818152602001828054610b539061147f565b8015610ba05780601f10610b7557610100808354040283529160200191610ba0565b820191906000526020600020905b815481529060010190602001808311610b8357829003601f168201915b50505050508152602001600282018054610bb99061147f565b80601f0160208091040260200160405190810160405280929190818152602001828054610be59061147f565b8015610c325780601f10610c0757610100808354040283529160200191610c32565b820191906000526020600020905b815481529060010190602001808311610c1557829003601f168201915b50505050508152602001600382018054610c4b9061147f565b80601f0160208091040260200160405190810160405280929190818152602001828054610c779061147f565b8015610cc45780601f10610c9957610100808354040283529160200191610cc4565b820191906000526020600020905b815481529060010190602001808311610ca757829003601f168201915b50505050508152602001600482018054610cdd9061147f565b80601f0160208091040260200160405190810160405280929190818152602001828054610d099061147f565b8015610d565780601f10610d2b57610100808354040283529160200191610d56565b820191906000526020600020905b815481529060010190602001808311610d3957829003601f168201915b5050505050815260200160058201805480602002602001604051908101604052809291908181526020016000905b82821015610e30578382906000526020600020018054610da39061147f565b80601f0160208091040260200160405190810160405280929190818152602001828054610dcf9061147f565b8015610e1c5780601f10610df157610100808354040283529160200191610e1c565b820191906000526020600020905b815481529060010190602001808311610dff57829003601f168201915b505050505081526020019060010190610d84565b505050915250508051602082015160408301516060840151608085015160a090950151939d929c50909a509850919650945092505050565b828054610e749061147f565b90600052602060002090601f016020900481019282610e965760008555610edc565b82601f10610eaf57805160ff1916838001178555610edc565b82800160010185558215610edc579182015b82811115610edc578251825591602001919060010190610ec1565b50610ee8929150610f45565b5090565b828054828255906000526020600020908101928215610f39579160200282015b82811115610f395782518051610f29918491602090910190610e68565b5091602001919060010190610f0c565b50610ee8929150610f5a565b5b80821115610ee85760008155600101610f46565b80821115610ee8576000610f6e8282610f77565b50600101610f5a565b508054610f839061147f565b6000825580601f10610f955750610fb3565b601f016020900490600052602060002090810190610fb39190610f45565b50565b600082601f830112610fc6578081fd5b8135602067ffffffffffffffff821115610fe257610fe26114e1565b610fef8182840201611455565b82815281810190858301855b8581101561102457611012898684358b0101611031565b84529284019290840190600101610ffb565b5090979650505050505050565b600082601f830112611041578081fd5b813567ffffffffffffffff81111561105b5761105b6114e1565b61106e601f8201601f1916602001611455565b818152846020838601011115611082578283fd5b816020850160208301379081016020019190915292915050565b6000602082840312156110ad578081fd5b5035919050565b60008060008060008060c087890312156110cc578182fd5b863567ffffffffffffffff808211156110e3578384fd5b6110ef8a838b01611031565b97506020890135915080821115611104578384fd5b6111108a838b01611031565b96506040890135915080821115611125578384fd5b6111318a838b01611031565b95506060890135915080821115611146578384fd5b6111528a838b01611031565b94506080890135915080821115611167578384fd5b6111738a838b01611031565b935060a0890135915080821115611188578283fd5b5061119589828a01610fb6565b9150509295509295509295565b60008282518085526020808601955080818302840101818601855b8481101561102457601f198684030189526111d98383516111eb565b988401989250908301906001016111bd565b60008151808452815b81811015611210576020818501810151868301820152016111f4565b818111156112215782602083870101525b50601f01601f19169290920160200192915050565b60609390931b6bffffffffffffffffffffffff191683526014830191909152603482015260540190565b600060a0825261127360a08301886111eb565b828103602084015261128581886111eb565b9050828103604084015261129981876111eb565b905082810360608401526112ad81866111eb565b905082810360808401526112c181856111eb565b98975050505050505050565b600060c082526112e060c08301896111eb565b82810360208401526112f281896111eb565b9050828103604084015261130681886111eb565b9050828103606084015261131a81876111eb565b9050828103608084015261132e81866111eb565b905082810360a084015261134281856111a2565b9998505050505050505050565b60208082526027908201527f45766964656e6365206e6f7420666f756e6420666f72207472616e73616374696040820152660dedc40d0c2e6d60cb1b606082015260800190565b602080825260139082015272496e646578206f7574206f6620626f756e647360681b604082015260600190565b90815260200190565b600088825260e060208301526113e560e08301896111eb565b82810360408401526113f781896111eb565b9050828103606084015261140b81886111eb565b9050828103608084015261141f81876111eb565b905082810360a084015261143381866111eb565b905082810360c084015261144781856111a2565b9a9950505050505050505050565b60405181810167ffffffffffffffff81118282101715611477576114776114e1565b604052919050565b60028104600182168061149357607f821691505b602082108114156114b457634e487b7160e01b600052602260045260246000fd5b50919050565b60006000198214156114da57634e487b7160e01b81526011600452602481fd5b5060010190565b634e487b7160e01b600052604160045260246000fdfea2646970667358221220cd2953a376782cbedc1af186065e873d374949ac99782122a9b1821e61a6deff64736f6c63430008000033",
  "immutableReferences": {},
  "source": "// SPDX-License-Identifier: MIT\r\npragma solidity ^0.8.0;\r\n\r\ncontract EvidenceStorage {\r\n    struct Evidence {\r\n        string hash;\r\n        string timestamp;\r\n        string investigator;\r\n        string content;\r\n        string author_username;\r\n        string[] mediaUrls;\r\n    }\r\n\r\n    Evidence[] public evidenceArray;\r\n    mapping(bytes32 => uint256) public txHashToEvidenceId;\r\n    uint256 public evidenceCount;\r\n\r\n    event EvidenceStored(uint256 indexed index, bytes32 indexed txHash);\r\n\r\n    function storeEvidence(\r\n        string memory _hash,\r\n        string memory _timestamp,\r\n        string memory _investigator,\r\n        string memory _content,\r\n        string memory _author_username,\r\n        string[] memory _mediaUrls\r\n    ) public {\r\n        uint256 index = evidenceCount;\r\n        evidenceArray.push(Evidence({\r\n            hash: _hash,\r\n            timestamp: _timestamp,\r\n            investigator: _investigator,\r\n            content: _content,\r\n            author_username: _author_username,\r\n            mediaUrls: _mediaUrls\r\n        }));\r\n        bytes32 txHash = keccak256(abi.encodePacked(msg.sender, block.timestamp, evidenceCount));\r\n        txHashToEvidenceId[txHash] = index;\r\n        evidenceCount++;\r\n        emit EvidenceStored(index, txHash);\r\n    }\r\n\r\n    function getEvidence(uint256 _index) public view returns (\r\n        string memory hash,\r\n        string memory timestamp,\r\n        string memory investigator,\r\n        string memory content,\r\n        string memory author_username,\r\n        string[] memory mediaUrls\r\n    ) {\r\n        require(_index < evidenceCount, \"Index out of bounds\");\r\n        Evidence memory evidence = evidenceArray[_index];\r\n        return (\r\n            evidence.hash,\r\n            evidence.timestamp,\r\n            evidence.investigator,\r\n            evidence.content,\r\n            evidence.author_username,\r\n            evidence.mediaUrls\r\n        );\r\n    }\r\n\r\n    function getEvidenceByTxHash(bytes32 txHash) public view returns (\r\n        uint256 index,\r\n        string memory hash,\r\n        string memory timestamp,\r\n        string memory investigator,\r\n        string memory content,\r\n        string memory author_username,\r\n        string[] memory mediaUrls\r\n    ) {\r\n        uint256 evidenceIndex = txHashToEvidenceId[txHash];\r\n        require(evidenceIndex < evidenceCount, \"Evidence not found for transaction hash\");\r\n        Evidence memory evidence = evidenceArray[evidenceIndex];\r\n        return (\r\n            evidenceIndex,\r\n            evidence.hash,\r\n            evidence.timestamp,\r\n            evidence.investigator,\r\n            evidence.content,\r\n            evidence.author_username,\r\n            evidence.mediaUrls\r\n        );\r\n    }\r\n}",
  "sourcePath": "C:\\Projects\\ForensicToolProject\\contracts\\EvidenceStorage.sol",
  "compiler": {
    "name": "solc",
    "version": "0.8.0+commit.c7dfd78e.Emscripten.clang"
  },
  "schemaVersion": "3.4.16",
  "updatedAt": "2025-10-16T11:30:41.814Z",
  "networkType": "ethereum",
  "devdoc": {
    "kind": "dev",
    "methods": {},
    "version": 1
  },
  "userdoc": {
    "kind": "user",
    "methods": {},
    "version": 1
  }
}