{
  "contractName": "EvidenceStorage",
  "abi": [
    {
      "anonymous": false,
      "inputs": [
        {
          "indexed": true,
          "internalType": "uint256",
          "name": "index",
          "type": "uint256"
        },
        {
          "indexed": true,
          "internalType": "bytes32",
          "name": "txHash",
          "type": "bytes32"
        },
        {
          "indexed": false,
          "internalType": "string",
          "name": "category",
          "type": "string"
        },
        {
          "indexed": false,
          "internalType": "uint256",
          "name": "confidence",
          "type": "uint256"
        }
      ],
      "name": "EvidenceStored",
      "type": "event"
    },
    {
      "inputs": [
        {
          "internalType": "uint256",
          "name": "",
          "type": "uint256"
        }
      ],
      "name": "evidenceArray",
      "outputs": [
        {
          "internalType": "string",
          "name": "hash",
          "type": "string"
        },
        {
          "internalType": "string",
          "name": "timestamp",
          "type": "string"
        },
        {
          "internalType": "string",
          "name": "investigator",
          "type": "string"
        },
        {
          "internalType": "string",
          "name": "content",
          "type": "string"
        },
        {
          "internalType": "string",
          "name": "author_username",
          "type": "string"
        },
        {
          "internalType": "string",
          "name": "platform",
          "type": "string"
        },
        {
          "internalType": "string",
          "name": "category",
          "type": "string"
        },
        {
          "internalType": "string",
          "name": "engagementMetrics",
          "type": "string"
        },
        {
          "internalType": "uint256",
          "name": "confidence",
          "type": "uint256"
        }
      ],
      "stateMutability": "view",
      "type": "function"
    },
    {
      "inputs": [],
      "name": "evidenceCount",
      "outputs": [
        {
          "internalType": "uint256",
          "name": "",
          "type": "uint256"
        }
      ],
      "stateMutability": "view",
      "type": "function"
    },
    {
      "inputs": [
        {
          "internalType": "bytes32",
          "name": "",
          "type": "bytes32"
        }
      ],
      "name": "txHashToEvidenceId",
      "outputs": [
        {
          "internalType": "uint256",
          "name": "",
          "type": "uint256"
        }
      ],
      "stateMutability": "view",
      "type": "function"
    },
    {
      "inputs": [
        {
          "internalType": "string",
          "name": "_hash",
          "type": "string"
        },
        {
          "internalType": "string",
          "name": "_timestamp",
          "type": "string"
        },
        {
          "internalType": "string",
          "name": "_investigator",
          "type": "string"
        },
        {
          "internalType": "string",
          "name": "_content",
          "type": "string"
        },
        {
          "internalType": "string",
          "name": "_author_username",
          "type": "string"
        },
        {
          "internalType": "string",
          "name": "_platform",
          "type": "string"
        },
        {
          "internalType": "string",
          "name": "_category",
          "type": "string"
        },
        {
          "internalType": "string",
          "name": "_engagementMetrics",
          "type": "string"
        },
        {
          "internalType": "string[]",
          "name": "_mediaUrls",
          "type": "string[]"
        },
        {
          "internalType": "uint256",
          "name": "_confidence",
          "type": "uint256"
        }
      ],
      "name": "storeEvidence",
      "outputs": [],
      "stateMutability": "nonpayable",
      "type": "function"
    },
    {
      "inputs": [
        {
          "internalType": "uint256",
          "name": "_index",
          "type": "uint256"
        }
      ],
      "name": "getEvidence",
      "outputs": [
        {
          "internalType": "string",
          "name": "hash",
          "type": "string"
        },
        {
          "internalType": "string",
          "name": "timestamp",
          "type": "string"
        },
        {
          "internalType": "string",
          "name": "investigator",
          "type": "string"
        },
        {
          "internalType": "string",
          "name": "content",
          "type": "string"
        },
        {
          "internalType": "string",
          "name": "author_username",
          "type": "string"
        },
        {
          "internalType": "string",
          "name": "platform",
          "type": "string"
        },
        {
          "internalType": "string",
          "name": "category",
          "type": "string"
        },
        {
          "internalType": "string",
          "name": "engagementMetrics",
          "type": "string"
        },
        {
          "internalType": "string[]",
          "name": "mediaUrls",
          "type": "string[]"
        },
        {
          "internalType": "uint256",
          "name": "confidence",
          "type": "uint256"
        }
      ],
      "stateMutability": "view",
      "type": "function"
    },
    {
      "inputs": [
        {
          "internalType": "bytes32",
          "name": "txHash",
          "type": "bytes32"
        }
      ],
      "name": "getEvidenceByTxHash",
      "outputs": [
        {
          "internalType": "uint256",
          "name": "index",
          "type": "uint256"
        },
        {
          "internalType": "string",
          "name": "hash",
          "type": "string"
        },
        {
          "internalType": "string",
          "name": "timestamp",
          "type": "string"
        },
        {
          "internalType": "string",
          "name": "investigator",
          "type": "string"
        },
        {
          "internalType": "string",
          "name": "content",
          "type": "string"
        },
        {
          "internalType": "string",
          "name": "author_username",
          "type": "string"
        },
        {
          "internalType": "string",
          "name": "platform",
          "type": "string"
        },
        {
          "internalType": "string",
          "name": "category",
          "type": "string"
        },
        {
          "internalType": "string",
          "name": "engagementMetrics",
          "type": "string"
        },
        {
          "internalType": "string[]",
          "name": "mediaUrls",
          "type": "string[]"
        },
        {
          "internalType": "uint256",
          "name": "confidence",
          "type": "uint256"
        }
      ],
      "stateMutability": "view",
      "type": "function"
    }
  ],
  "bytecode": "0x608060405234801561001057600080fd5b50611ce0806100206000396000f3fe608060405234801561001057600080fd5b50600436106100625760003560e01c806321531a17146100675780634849b4711461007c57806388aae880146100a5578063a06f3905146100cd578063a2ed5af0146100f7578063c956f143146100ff575b600080fd5b61007a6100753660046116e9565b610128565b005b61008f61008a3660046116d1565b61034f565b60405161009c9190611b29565b60405180910390f35b6100b86100b33660046116d1565b610361565b60405161009c999897969594939291906119db565b6100e06100db3660046116d1565b6107ff565b60405161009c9b9a99989796959493929190611b32565b61008f610e5f565b61011261010d3660046116d1565b610e65565b60405161009c9a9998979695949392919061190d565b60025460408051610140810182528c815260208082018d90529181018b9052606081018a90526080810189905260a0810188905260c0810187905260e081018690526101008101859052610120810184905260008054600181018255908052815180519293600a9092027f290decd9548b62a8d60345a988386fc84ba6bc95484008f6362f93160ef3e56301926101c2928492019061149d565b5060208281015180516101db926001850192019061149d565b50604082015180516101f791600284019160209091019061149d565b506060820151805161021391600384019160209091019061149d565b506080820151805161022f91600484019160209091019061149d565b5060a0820151805161024b91600584019160209091019061149d565b5060c0820151805161026791600684019160209091019061149d565b5060e0820151805161028391600784019160209091019061149d565b5061010082015180516102a0916008840191602090910190611521565b5061012082015181600901555050600033426002546040516020016102c7939291906118e3565b60408051601f1981840301815291815281516020928301206000818152600190935290822084905560028054919350909161030183611c6d565b919050555080827fb1a7f23c97a01fdb7b9b0ee7e9cebf9caffd8b0ce8106c2cfcb3048c4aa8eeb08886604051610339929190611a93565b60405180910390a3505050505050505050505050565b60016020526000908152604090205481565b6000818154811061037157600080fd5b90600052602060002090600a020160009150905080600001805461039490611c32565b80601f01602080910402602001604051908101604052809291908181526020018280546103c090611c32565b801561040d5780601f106103e25761010080835404028352916020019161040d565b820191906000526020600020905b8154815290600101906020018083116103f057829003601f168201915b50505050509080600101805461042290611c32565b80601f016020809104026020016040519081016040528092919081815260200182805461044e90611c32565b801561049b5780601f106104705761010080835404028352916020019161049b565b820191906000526020600020905b81548152906001019060200180831161047e57829003601f168201915b5050505050908060020180546104b090611c32565b80601f01602080910402602001604051908101604052809291908181526020018280546104dc90611c32565b80156105295780601f106104fe57610100808354040283529160200191610529565b820191906000526020600020905b81548152906001019060200180831161050c57829003601f168201915b50505050509080600301805461053e90611c32565b80601f016020809104026020016040519081016040528092919081815260200182805461056a90611c32565b80156105b75780601f1061058c576101008083540402835291602001916105b7565b820191906000526020600020905b81548152906001019060200180831161059a57829003601f168201915b5050505050908060040180546105cc90611c32565b80601f01602080910402602001604051908101604052809291908181526020018280546105f890611c32565b80156106455780601f1061061a57610100808354040283529160200191610645565b820191906000526020600020905b81548152906001019060200180831161062857829003601f168201915b50505050509080600501805461065a90611c32565b80601f016020809104026020016040519081016040528092919081815260200182805461068690611c32565b80156106d35780601f106106a8576101008083540402835291602001916106d3565b820191906000526020600020905b8154815290600101906020018083116106b657829003601f168201915b5050505050908060060180546106e890611c32565b80601f016020809104026020016040519081016040528092919081815260200182805461071490611c32565b80156107615780601f1061073657610100808354040283529160200191610761565b820191906000526020600020905b81548152906001019060200180831161074457829003601f168201915b50505050509080600701805461077690611c32565b80601f01602080910402602001604051908101604052809291908181526020018280546107a290611c32565b80156107ef5780601f106107c4576101008083540402835291602001916107ef565b820191906000526020600020905b8154815290600101906020018083116107d257829003601f168201915b5050505050908060090154905089565b60006060806060806060806060806060600080600160008e815260200190815260200160002054905060025481106108525760405162461bcd60e51b815260040161084990611ab5565b60405180910390fd5b600080828154811061087457634e487b7160e01b600052603260045260246000fd5b90600052602060002090600a02016040518061014001604052908160008201805461089e90611c32565b80601f01602080910402602001604051908101604052809291908181526020018280546108ca90611c32565b80156109175780601f106108ec57610100808354040283529160200191610917565b820191906000526020600020905b8154815290600101906020018083116108fa57829003601f168201915b5050505050815260200160018201805461093090611c32565b80601f016020809104026020016040519081016040528092919081815260200182805461095c90611c32565b80156109a95780601f1061097e576101008083540402835291602001916109a9565b820191906000526020600020905b81548152906001019060200180831161098c57829003601f168201915b505050505081526020016002820180546109c290611c32565b80601f01602080910402602001604051908101604052809291908181526020018280546109ee90611c32565b8015610a3b5780601f10610a1057610100808354040283529160200191610a3b565b820191906000526020600020905b815481529060010190602001808311610a1e57829003601f168201915b50505050508152602001600382018054610a5490611c32565b80601f0160208091040260200160405190810160405280929190818152602001828054610a8090611c32565b8015610acd5780601f10610aa257610100808354040283529160200191610acd565b820191906000526020600020905b815481529060010190602001808311610ab057829003601f168201915b50505050508152602001600482018054610ae690611c32565b80601f0160208091040260200160405190810160405280929190818152602001828054610b1290611c32565b8015610b5f5780601f10610b3457610100808354040283529160200191610b5f565b820191906000526020600020905b815481529060010190602001808311610b4257829003601f168201915b50505050508152602001600582018054610b7890611c32565b80601f0160208091040260200160405190810160405280929190818152602001828054610ba490611c32565b8015610bf15780601f10610bc657610100808354040283529160200191610bf1565b820191906000526020600020905b815481529060010190602001808311610bd457829003601f168201915b50505050508152602001600682018054610c0a90611c32565b80601f0160208091040260200160405190810160405280929190818152602001828054610c3690611c32565b8015610c835780601f10610c5857610100808354040283529160200191610c83565b820191906000526020600020905b815481529060010190602001808311610c6657829003601f168201915b50505050508152602001600782018054610c9c90611c32565b80601f0160208091040260200160405190810160405280929190818152602001828054610cc890611c32565b8015610d155780601f10610cea57610100808354040283529160200191610d15565b820191906000526020600020905b815481529060010190602001808311610cf857829003601f168201915b5050505050815260200160088201805480602002602001604051908101604052809291908181526020016000905b82821015610def578382906000526020600020018054610d6290611c32565b80601f0160208091040260200160405190810160405280929190818152602001828054610d8e90611c32565b8015610ddb5780601f10610db057610100808354040283529160200191610ddb565b820191906000526020600020905b815481529060010190602001808311610dbe57829003601f168201915b505050505081526020019060010190610d43565b505050508152602001600982015481525050905081816000015182602001518360400151846060015185608001518660a001518760c001518860e001518961010001518a61012001519c509c509c509c509c509c509c509c509c509c509c50505091939597999b90929496989a50565b60025481565b606080606080606080606080606060006002548b10610e965760405162461bcd60e51b815260040161084990611afc565b6000808c81548110610eb857634e487b7160e01b600052603260045260246000fd5b90600052602060002090600a020160405180610140016040529081600082018054610ee290611c32565b80601f0160208091040260200160405190810160405280929190818152602001828054610f0e90611c32565b8015610f5b5780601f10610f3057610100808354040283529160200191610f5b565b820191906000526020600020905b815481529060010190602001808311610f3e57829003601f168201915b50505050508152602001600182018054610f7490611c32565b80601f0160208091040260200160405190810160405280929190818152602001828054610fa090611c32565b8015610fed5780601f10610fc257610100808354040283529160200191610fed565b820191906000526020600020905b815481529060010190602001808311610fd057829003601f168201915b5050505050815260200160028201805461100690611c32565b80601f016020809104026020016040519081016040528092919081815260200182805461103290611c32565b801561107f5780601f106110545761010080835404028352916020019161107f565b820191906000526020600020905b81548152906001019060200180831161106257829003601f168201915b5050505050815260200160038201805461109890611c32565b80601f01602080910402602001604051908101604052809291908181526020018280546110c490611c32565b80156111115780601f106110e657610100808354040283529160200191611111565b820191906000526020600020905b8154815290600101906020018083116110f457829003601f168201915b5050505050815260200160048201805461112a90611c32565b80601f016020809104026020016040519081016040528092919081815260200182805461115690611c32565b80156111a35780601f10611178576101008083540402835291602001916111a3565b820191906000526020600020905b81548152906001019060200180831161118657829003601f168201915b505050505081526020016005820180546111bc90611c32565b80601f01602080910402602001604051908101604052809291908181526020018280546111e890611c32565b80156112355780601f1061120a57610100808354040283529160200191611235565b820191906000526020600020905b81548152906001019060200180831161121857829003601f168201915b5050505050815260200160068201805461124e90611c32565b80601f016020809104026020016040519081016040528092919081815260200182805461127a90611c32565b80156112c75780601f1061129c576101008083540402835291602001916112c7565b820191906000526020600020905b8154815290600101906020018083116112aa57829003601f168201915b505050505081526020016007820180546112e090611c32565b80601f016020809104026020016040519081016040528092919081815260200182805461130c90611c32565b80156113595780601f1061132e57610100808354040283529160200191611359565b820191906000526020600020905b81548152906001019060200180831161133c57829003601f168201915b5050505050815260200160088201805480602002602001604051908101604052809291908181526020016000905b828210156114335783829060005260206000200180546113a690611c32565b80601f01602080910402602001604051908101604052809291908181526020018280546113d290611c32565b801561141f5780601f106113f45761010080835404028352916020019161141f565b820191906000526020600020905b81548152906001019060200180831161140257829003601f168201915b505050505081526020019060010190611387565b5050505081526020016009820154815250509050806000015181602001518260400151836060015184608001518560a001518660c001518760e001518861010001518961012001519a509a509a509a509a509a509a509a509a509a50509193959799509193959799565b8280546114a990611c32565b90600052602060002090601f0160209004810192826114cb5760008555611511565b82601f106114e457805160ff1916838001178555611511565b82800160010185558215611511579182015b828111156115115782518255916020019190600101906114f6565b5061151d92915061157a565b5090565b82805482825590600052602060002090810192821561156e579160200282015b8281111561156e578251805161155e91849160209091019061149d565b5091602001919060010190611541565b5061151d92915061158f565b5b8082111561151d576000815560010161157b565b8082111561151d5760006115a382826115ac565b5060010161158f565b5080546115b890611c32565b6000825580601f106115ca57506115e8565b601f0160209004906000526020600020908101906115e8919061157a565b50565b600082601f8301126115fb578081fd5b8135602067ffffffffffffffff82111561161757611617611c94565b6116248182840201611c08565b82815281810190858301855b8581101561165957611647898684358b0101611666565b84529284019290840190600101611630565b5090979650505050505050565b600082601f830112611676578081fd5b813567ffffffffffffffff81111561169057611690611c94565b6116a3601f8201601f1916602001611c08565b8181528460208386010111156116b7578283fd5b816020850160208301379081016020019190915292915050565b6000602082840312156116e2578081fd5b5035919050565b6000806000806000806000806000806101408b8d031215611708578586fd5b8a3567ffffffffffffffff8082111561171f578788fd5b61172b8e838f01611666565b9b5060208d0135915080821115611740578788fd5b61174c8e838f01611666565b9a5060408d0135915080821115611761578788fd5b61176d8e838f01611666565b995060608d0135915080821115611782578788fd5b61178e8e838f01611666565b985060808d01359150808211156117a3578788fd5b6117af8e838f01611666565b975060a08d01359150808211156117c4578687fd5b6117d08e838f01611666565b965060c08d01359150808211156117e5578586fd5b6117f18e838f01611666565b955060e08d0135915080821115611806578485fd5b6118128e838f01611666565b94506101008d0135915080821115611828578384fd5b506118358d828e016115eb565b9250506101208b013590509295989b9194979a5092959850565b60008282518085526020808601955080818302840101818601855b8481101561165957601f19868403018952611886838351611898565b9884019892509083019060010161186a565b60008151808452815b818110156118bd576020818501810151868301820152016118a1565b818111156118ce5782602083870101525b50601f01601f19169290920160200192915050565b60609390931b6bffffffffffffffffffffffff191683526014830191909152603482015260540190565b60006101408083526119218184018e611898565b90508281036020840152611935818d611898565b90508281036040840152611949818c611898565b9050828103606084015261195d818b611898565b90508281036080840152611971818a611898565b905082810360a08401526119858189611898565b905082810360c08401526119998188611898565b905082810360e08401526119ad8187611898565b90508281036101008401526119c2818661184f565b915050826101208301529b9a5050505050505050505050565b60006101208083526119ef8184018d611898565b90508281036020840152611a03818c611898565b90508281036040840152611a17818b611898565b90508281036060840152611a2b818a611898565b90508281036080840152611a3f8189611898565b905082810360a0840152611a538188611898565b905082810360c0840152611a678187611898565b905082810360e0840152611a7b8186611898565b915050826101008301529a9950505050505050505050565b600060408252611aa66040830185611898565b90508260208301529392505050565b60208082526027908201527f45766964656e6365206e6f7420666f756e6420666f72207472616e73616374696040820152660dedc40d0c2e6d60cb1b606082015260800190565b602080825260139082015272496e646578206f7574206f6620626f756e647360681b604082015260600190565b90815260200190565b60006101608d8352806020840152611b4c8184018e611898565b90508281036040840152611b60818d611898565b90508281036060840152611b74818c611898565b90508281036080840152611b88818b611898565b905082810360a0840152611b9c818a611898565b905082810360c0840152611bb08189611898565b905082810360e0840152611bc48188611898565b9050828103610100840152611bd98187611898565b9050828103610120840152611bee818661184f565b915050826101408301529c9b505050505050505050505050565b60405181810167ffffffffffffffff81118282101715611c2a57611c2a611c94565b604052919050565b600281046001821680611c4657607f821691505b60208210811415611c6757634e487b7160e01b600052602260045260246000fd5b50919050565b6000600019821415611c8d57634e487b7160e01b81526011600452602481fd5b5060010190565b634e487b7160e01b600052604160045260246000fdfea26469706673582212200bcf4b9f35ee4cd90a959abd45b2706385971ec9e8636ae88f10e1a980397a5a64736f6c63430008000033",
  "immutableReferences": {},
  "source": "// SPDX-License-Identifier: MIT\r\npragma solidity ^0.8.0;\r\n\r\ncontract EvidenceStorage {\r\n    struct Evidence {\r\n        string hash;\r\n        string timestamp;\r\n        string investigator;\r\n        string content;\r\n        string author_username;\r\n        string platform;          // NEW: Platform source (e.g. Twitter)\r\n        string category;          // NEW: AI category (Safe, Defamatory, Hate Speech)\r\n        string engagementMetrics; // NEW: Serialized metrics (likes, shares, etc)\r\n        string[] mediaUrls;\r\n        uint256 confidence;       // Scaled: 0.94 -> 9400\r\n    }\r\n\r\n    Evidence[] public evidenceArray;\r\n    mapping(bytes32 => uint256) public txHashToEvidenceId;\r\n    uint256 public evidenceCount;\r\n\r\n    event EvidenceStored(\r\n        uint256 indexed index,\r\n        bytes32 indexed txHash,\r\n        string category,\r\n        uint256 confidence\r\n    );\r\n\r\n    function storeEvidence(\r\n        string memory _hash,\r\n        string memory _timestamp,\r\n        string memory _investigator,\r\n        string memory _content,\r\n        string memory _author_username,\r\n        string memory _platform,\r\n        string memory _category,\r\n        string memory _engagementMetrics,\r\n        string[] memory _mediaUrls,\r\n        uint256 _confidence\r\n    ) public {\r\n        uint256 index = evidenceCount;\r\n        evidenceArray.push(Evidence({\r\n            hash: _hash,\r\n            timestamp: _timestamp,\r\n            investigator: _investigator,\r\n            content: _content,\r\n            author_username: _author_username,\r\n            platform: _platform,\r\n            category: _category,\r\n            engagementMetrics: _engagementMetrics,\r\n            mediaUrls: _mediaUrls,\r\n            confidence: _confidence\r\n        }));\r\n\r\n        bytes32 txHash = keccak256(abi.encodePacked(msg.sender, block.timestamp, evidenceCount));\r\n        txHashToEvidenceId[txHash] = index;\r\n        evidenceCount++;\r\n\r\n        emit EvidenceStored(index, txHash, _category, _confidence);\r\n    }\r\n\r\n    function getEvidence(uint256 _index) public view returns (\r\n        string memory hash,\r\n        string memory timestamp,\r\n        string memory investigator,\r\n        string memory content,\r\n        string memory author_username,\r\n        string memory platform,\r\n        string memory category,\r\n        string memory engagementMetrics,\r\n        string[] memory mediaUrls,\r\n        uint256 confidence\r\n    ) {\r\n        require(_index < evidenceCount, \"Index out of bounds\");\r\n        Evidence memory evidence = evidenceArray[_index];\r\n        return (\r\n            evidence.hash,\r\n            evidence.timestamp,\r\n            evidence.investigator,\r\n            evidence.content,\r\n            evidence.author_username,\r\n            evidence.platform,\r\n            evidence.category,\r\n            evidence.engagementMetrics,\r\n            evidence.mediaUrls,\r\n            evidence.confidence\r\n        );\r\n    }\r\n\r\n    function getEvidenceByTxHash(bytes32 txHash) public view returns (\r\n        uint256 index,\r\n        string memory hash,\r\n        string memory timestamp,\r\n        string memory investigator,\r\n        string memory content,\r\n        string memory author_username,\r\n        string memory platform,\r\n        string memory category,\r\n        string memory engagementMetrics,\r\n        string[] memory mediaUrls,\r\n        uint256 confidence\r\n    ) {\r\n        uint256 evidenceIndex = txHashToEvidenceId[txHash];\r\n        require(evidenceIndex < evidenceCount, \"Evidence not found for transaction hash\");\r\n        Evidence memory evidence = evidenceArray[evidenceIndex];\r\n        return (\r\n            evidenceIndex,\r\n            evidence.hash,\r\n            evidence.timestamp,\r\n            evidence.investigator,\r\n            evidence.content,\r\n            evidence.author_username,\r\n            evidence.platform,\r\n            evidence.category,\r\n            evidence.engagementMetrics,\r\n            evidence.mediaUrls,\r\n            evidence.confidence\r\n        );\r\n    }\r\n}\r\n",
  "sourcePath": "C:\\Projects\\ForensicToolProject\\contracts\\EvidenceStorage.sol",
  "compiler": {
    "name": "solc",
    "version": "0.8.0+commit.c7dfd78e.Emscripten.clang"
  },
  "schemaVersion": "3.4.16",
  "updatedAt": "2026-03-03T15:48:52.836Z",
  "devdoc": {
    "kind": "dev",
    "methods": {},
    "version": 1
  },
  "userdoc": {
    "kind": "user",
    "methods": {},
    "version": 1
  }
}